:020000040800F2
:100000000050002075250008A5230008AD23000836
:10001000B5230008BD230008C52300080000000028
:10002000000000000000000000000000515800081F
:10003000CD2300080000000081580008D9230008E3
:10004000BD250008BD250008BD250008BD25000808
:10005000BD250008BD250008BD250008BD250008F8
:10006000F3230008BD250008BD250008BD250008B4
:10007000BD250008BD250008BD250008BD250008D8
:10008000BD250008BD250008BD250008BD250008C8
:10009000BD250008BD250008BD250008BD250008B8
:1000A000BD250008BD250008BD2500080124000865
:1000B000BD250008BD250008BD250008BD25000898
:1000C000BD250008BD250008BD250008BD25000888
:1000D000BD250008BD25000815240008BD25000821
:1000E000BD250008BD250008BD2500080000000052
:1000F0000000000000000000000000000000000000
:0C01000000000000000000005FF808F1A3
:1001100010B5054C237833B9044B13B10448AFF341
:1001200000800123237010BD780000200000000033
:10013000D069000808B5034B1BB103490348AFF36E
:10014000008008BD000000007C000020D06900088D
:1001500010F8012B11F8013B012A28BF9A42F7D071
:10016000D01A7047034613F8012B002AFBD1181A46
:100170000138704780B584B000AFF860B9607A602C
:10018000FB707868FFF7EEFF03460133184605F071
:10019000BDFB03461A46BB68DA60BB68DB6879685A
:1001A000184605F044FFBB683A7E5A70BB68FA787F
:1001B0001A70FB6893F8E8301A46FB681A32B9687F
:1001C00043F82210FB6893F8E8300133DAB2FB6899
:1001D00083F8E820BB68FA695A60BB683A6A9A609B
:1001E000002318461037BD4680BD80B582B000AFF1
:1001F000786039607B683A681A607B68002283F80F
:1002000065207B68002283F866207B6818687B681D
:1002100064330122194604F0E6FB7B68002283F870
:10022000E820002318460837BD4680BD80B594B04D
:1002300000AFF860B9607A6007F110034022002136
:10024000184605F069FEBB68DA6807F110007B68A4
:10025000064905F067FD07F110031946F86800F03C
:1002600007F8002318465037BD4680BDF4690008E2
:1002700090B583B000AF786039607B681C683868DF
:10028000FFF770FF03469AB2FA233968204604F05C
:100290001FFB786800F006F8002318460C37BD46AF
:1002A00090BD000080B584B000AF78600C4A07F1C3
:1002B0000C031268114619800233120C1A707B6805
:1002C000186807F10C01FA23032204F001FB786897
:1002D00000F008F8002318461037BD4680BD00BF67
:1002E000186A000880B582B000AF78607B68186833
:1002F0007B6864330122194604F075FB002318461D
:100300000837BD4680BD000080B582B000AF194BF4
:100310001B68012B2AD12021174802F01BFF03463E
:10032000FB718021144802F015FF0346BB710121C7
:10033000124802F00FFF03467B7102210F4802F0C2
:1003400009FF03463B71FB79002B08D0BB79002BDA
:1003500005D07B79002B02D03B79002B06D101F030
:1003600057FA074B00221A7000F05EFF00BF0837F3
:10037000BD4680BDF803002000080140000C01408C
:100380009C00002080B485B000AF78600023FB6043
:1003900003E000BFFB680133FB607B684FF47A72B7
:1003A00002FB03F3FA689A42F3D300BF00BF14378D
:1003B000BD4680BC7047000080B500AF012210210F
:1003C000064802F0DEFE4FF49670FFF7DBFF0022D6
:1003D0001021024802F0D5FE00BF80BD0008014098
:1003E00080B586B000AF3B1D0A49184605F09AFC5F
:1003F0003B1D1846FFF7B6FE03469AB2391D64232B
:10040000054804F065FAFFF7D7FF00BF1837BD466F
:1004100080BD00BF1C6A00085C04002080B586B067
:1004200000AF3B1D0A49184605F07CFC3B1D1846F1
:10043000FFF798FE03469AB2391D6423054804F07D
:1004400047FAFFF7B9FF00BF1837BD4680BD00BFB0
:100450002C6A00085C04002080B586B000AF3B1D0C
:100460000A49184605F05EFC3B1D1846FFF77AFE68
:1004700003469AB2391D6423054804F029FAFFF7B0
:100480009BFF00BF1837BD4680BD00BF3C6A000817
:100490005C04002080B586B000AF2021134802F034
:1004A00059FE0346FB75124B1B78FA7D9A4218D011
:1004B000FB7D012B02D1FFF793FF0FE03B460D4977
:1004C000184605F02FFC3B461846FFF74BFE034647
:1004D0009AB239466423084804F0FAF9044AFB7DCD
:1004E000137000BF1837BD4680BD00BF0008014033
:1004F000040400204C6A00085C04002080B586B02B
:1005000000AF8021134802F025FE0346FB75124B15
:100510001B78FA7D9A4218D0FB7D012B02D1FFF7A0
:100520007DFF0FE03B460D49184605F0FBFB3B46BF
:100530001846FFF717FE03469AB239466423084867
:1005400004F0C6F9044AFB7D137000BF1837BD469E
:1005500080BD00BF00080140050400205C6A00085F
:100560005C04002080B586B000AF0221134802F081
:10057000F1FD0346FB75124B1B78FA7D9A4218D0A9
:10058000FB7D012B02D1FFF767FF0FE03B460D49D2
:10059000184605F0C7FB3B461846FFF7E3FD034648
:1005A0009AB239466423084804F092F9044AFB7D64
:1005B000137000BF1837BD4680BD00BF000C01405E
:1005C000060400206C6A00085C040020B0B598B0F6
:1005D00000AF786002F0AAFA00233B6400237B643A
:1005E0002A4BFB6401233B6507F1400207F14403FA
:1005F0001146184602F082FB0346002B04D002F09D
:10060000BBFA01F0F5FD3EE0204BFB657B687B65A6
:100610000023BB651BE0BB6D9B007A6D13441B6818
:1006200000221C46154622462B46F96D022002F098
:100630000DFA0346002B04D002F09EFA01F0D8FD1B
:1006400021E0FB6D0433FB65BB6D0133BB65BB6D06
:10065000022BE0D902F090FA7B681B791A4607F169
:100660000C030B49184605F05DFB07F10C03184617
:10067000FFF778FD03469AB207F10C014FF0FF3304
:10068000044804F025F96037BD46B0BD00F8010804
:100690007C6A00085C04002080B590B000AF7860F0
:1006A000154BFB630C22F96B786805F0C8FC7B687E
:1006B0001B68B42B05D97B680A221A607868FFF79B
:1006C00085FF7B681A687B681B7907F108000B4976
:1006D00005F028FB07F108031846FFF743FD034622
:1006E0009AB207F108014FF0FF33054804F0F0F823
:1006F00000BF4037BD4680BD00F80108A06A000871
:100700005C04002080B588B000AF374B1B78DBB2AB
:10071000002B64D001F0ACFF0246344B1B68D31AA7
:10072000BB610023FB61BB6941F2873293421AD857
:10073000BB69C3F59C5308332D4AA2FB03239B09D5
:10074000FB61BB69C3F59C530833294AA2FB031222
:1007500092094FF47A7101FB02F29A1A002A02D030
:10076000FB690133FB6107F10C03FA692149184663
:1007700005F0D8FA07F10C031A461F491F48FFF786
:1007800055FDBB6941F28732934228D9164B0022AE
:100790001A701B4B00221A6000F0F2FFFFF70CFEEC
:1007A0000121184801F056F80021174801F052F8CD
:1007B000164A17491148FFF739FD164B00221A70E7
:1007C00000F032FD144B1A683B460A49184605F002
:1007D000A9FA3B461A4608490848FFF727FD00BF1B
:1007E0002037BD4680BD00BFD8030020DC030020B9
:1007F000D34D6210C46A00083802002008010020AE
:10080000F8030020C86A0008CC6A0008D06A000813
:10081000980200209C0000200000002080B5A0B0BD
:1008200000AF78607B681B689B4A934240F0C383AB
:100830009A4B1B780D2B10D0994B1B78622B00F232
:10084000B583974B1B785A1CD1B2954A11701A4642
:10085000924B1978934B9954A8E3914B1B781A4605
:10086000904B002199548E4B00221A708E4B01221E
:100870001A708E498B48FFF76BFC0346002B05D19D
:100880008B4A8C498C48FFF7D1FC72E18B49854833
:10089000FFF75EFC0346002B05D1894A854986484F
:1008A000FFF7C4FC65E187497E48FFF751FC03462A
:1008B000002B28D1844B1B68B32B1ED8824B1B689E
:1008C0000133814A1360814B01221A70FFF774FDD6
:1008D0007D4B1A6807F174037D49184605F022FA2A
:1008E00007F174031A467B497348FFF79FFC764B68
:1008F0001B68184600F050FC3BE1774A75496E488A
:10090000FFF794FC57E375496648FFF721FC03465F
:10091000002B2CD16C4B1B680533B42B1ED86A4BB3
:100920001B680533684A1360684B01221A70FFF791
:1009300043FD654B1A6807F158036549184605F0F1
:10094000F1F907F158031A4662495B48FFF76EFC5C
:100950005D4B1B68184600F01FFC0AE15A4BB4229D
:100960001A605D4A5B495448FFF760FC23E35C4929
:100970004C48FFF7EDFB0346002B2CD1524B1B6874
:100980000A33B42B1ED8504B1B680A334E4A1360EF
:100990004E4B01221A70FFF70FFD4B4B1A6807F1FF
:1009A0003C034B49184605F0BDF907F13C031A46D4
:1009B00048494148FFF73AFC434B1B68184600F092
:1009C000EBFBD6E0404BB4221A60434A41493A4817
:1009D000FFF72CFCEFE243493248FFF7B9FB03462F
:1009E000002B28D1384B1B68012B1ED9364B1B68B6
:1009F000013B354A1360344B1A6807F12003344930
:100A0000184605F08FF907F120031A4631492A48A4
:100A1000FFF70CFC2C4B1B68184600F0BDFB2B4B62
:100A200001221A70FFF7C8FCA3E02F4A2949224887
:100A3000FFF7FCFB9DE02D491A48FFF789FB0346B1
:100A4000002B55D1204B1B68052B1ED91E4B1B6854
:100A5000053B1D4A13601C4B1A6807F114031C491F
:100A6000184605F05FF907F114031A4619491248B0
:100A7000FFF7DCFB144B1B68184600F08DFB134B93
:100A800001221A70FFF798FC73E0174A11490A48CF
:100A9000FFF7CCFB6DE000BF004400409400002055
:100AA0009D000020A000002004010020E86A00084A
:100AB000F06A0008E802002008010020F46A00083B
:100AC000FC6A0008006B000800000020F40300200E
:100AD000C46A000838020020086B00080C6B00088C
:100AE000146B00081C6B0008246B0008286B0008BE
:100AF000AB49AC48FFF72CFB0346002B28D1AA4B8F
:100B00001B680A2B1ED9A84B1B680A3BA64A136018
:100B1000A54B1A6807F10803A449184605F002F925
:100B200007F108031A46A249A248FFF77FFB9E4B34
:100B30001B68184600F030FB9F4B01221A70FFF72C
:100B40003BFC16E09D4A9A499A48FFF76FFB10E07C
:100B50009B499448FFF7FCFA0346002B09D19948BA
:100B600000F09AFE9620FFF70DFCFFF725FC00F041
:100B700013FF95498B48FFF7EBFA0346002B62D130
:100B8000924B1B78002B06D02021914802F0E2FA0C
:100B90000346012B2DD18F4B1B78002B06D0402113
:100BA0008B4802F0D7FA0346012B22D18A4B1B78DF
:100BB000002B06D08021864802F0CCFA0346012B98
:100BC00017D1864B1B78002B06D00121844802F0F8
:100BD000C1FA0346012B0CD1824B1B78002B06D0A7
:100BE00002217F4802F0B6FA0346012B01D101230E
:100BF00000E0002387F87F3097F87F3003F001038F
:100C000087F87F3097F87F30002B2AD0764B01226F
:100C10001A7001F02DFD0346744A136000F068FD60
:100C2000FFF7CAFB724B01221A600121714800F0E4
:100C300011FE0021704800F00DFE704A70495D48B9
:100C4000FFF7F4FA0DE06F495648FFF781FA0346C3
:100C5000002B06D1584B01221A7000F0BFFBFFF7A2
:100C6000ABFB69494F48FFF773FA0346002B5CD191
:100C7000564B1B78002B06D02021554802F06AFA0B
:100C80000346012B2DD1534B1B78002B06D040215E
:100C90004F4802F05FFA0346012B22D14E4B1B78DE
:100CA000002B06D080214A4802F054FA0346012B5B
:100CB00017D14A4B1B78002B06D00121484802F07F
:100CC00049FA0346012B0CD1464B1B78002B06D06A
:100CD0000221434802F03EFA0346012B01D10123D1
:100CE00000E0002387F87E3097F87E3003F00103A0
:100CF00087F87E3097F87E30002B00F05281434B0E
:100D000001221A7000F0F4FCFFF756FB384B012269
:100D10001A600021384800F09DFD0121354800F09F
:100D200099FD5A20FFF72EFB3BE139491D48FFF79B
:100D30000FFA0346002B12D100F022FDFFF73CFB17
:100D4000344B00221A70344A2D491A48FFF76EFAC4
:100D500000F06AFA0121284800F07CFD21E12F49CA
:100D60001048FFF7F5F90346002B02D100F05AF9BD
:100D700017E12B490B48FFF7EBF90346002B57D13E
:100D8000124B00221A70274B00221A712548FFF7D8
:100D90001DFC254A25490748FFF748FA01E100BF35
:100DA000306B0008A000002000000020C46A00088A
:100DB0003802002008010020F4030020246B000802
:100DC000386B0008406B0008486B000800040020E6
:100DD0000008014001040020020400200304002058
:100DE000000C014005000020D8030020DC03002097
:100DF000F8030020CC6A0008C86A0008506B00089D
:100E000098020020606B0008686B0008F503002062
:100E1000706B00089C000020FC6A0008786B0008DA
:100E2000806B000808040020886B0008780300200D
:100E300062496348FFF78CF90346002B0ED1614BE2
:100E400001221A70604B01221A715F48FFF7BEFB46
:100E50005E4A5F495F48FFF7E9F9A2E05E495848FA
:100E6000FFF776F90346002B0ED15C4B00221A7077
:100E70005B4A5C495748FFF7D9F9534B00225A7136
:100E80005148FFF7A3FB8CE057494D48FFF760F945
:100E90000346002B0ED1514B01221A704B4A514987
:100EA0004C48FFF7C3F9484B01225A714648FFF7F7
:100EB0008DFB76E04D494248FFF74AF90346002B87
:100EC0000ED14B4B00221A70454A4A494148FFF760
:100ED000ADF93D4B00229A713B48FFF777FB60E08C
:100EE00045493748FFF734F90346002B0ED1404BF4
:100EF00001221A70354A3F493648FFF797F9324BBD
:100F000001229A713048FFF761FB4AE03B492C48C7
:100F1000FFF71EF90346002B0ED1394B00221A7041
:100F20002F4A38492B48FFF781F9274B0022DA7105
:100F30002548FFF74BFB34E033492148FFF708F918
:100F40000346002B0ED12E4B01221A701F4A2D4949
:100F50002048FFF76BF91C4B0122DA711A48FFF7A2
:100F600035FB1EE029491648FFF7F2F80346002B2F
:100F700008D1274B00221A70194A26491548FFF755
:100F800055F90EE024490E48FFF7E2F80346002B1E
:100F900007D11F4B01221A700C4A1E490D48FFF75A
:100FA00045F964220021064804F0B6FF01221B49DE
:100FB0001B4803F018FD8037BD4680BD906B0008CC
:100FC000A00000200004002008040020986B000806
:100FD0007803002008010020A06B00080104002015
:100FE000886B000888030020A86B0008B06B00081D
:100FF0000204002098030020B86B0008C06B0008B2
:1010000003040020A8030020C86B0008D06B000870
:1010100005000020B8030020D86B000894000020D1
:101020005C04002080B584B000AF254B1B781A46C5
:101030003B1D2449184604F075FE3B1D1A46224903
:101040002248FFF7F3F8224B1B781A463B1D1D4937
:10105000184604F067FE3B1D1A461E491B48FFF761
:10106000E5F81D4B1B781A463B1D1649184604F03F
:1010700059FE3B1D1A4619491448FFF7D7F8184B7B
:101080001B781A463B1D0F49184604F04BFE3B1DCA
:101090001A4614490D48FFF7C9F8134B1B781A4636
:1010A0003B1D0849184604F03DFE3B1D1A460F49FA
:1010B0000648FFF7BBF800BF1037BD4680BD00BF34
:1010C00000040020E06B00087803002008010020E5
:1010D000010400208803002002040020980300205F
:1010E00003040020A803002005000020B80300200E
:1010F00080B500AF0C4B1B78002B12D001F0B8FA72
:1011000002460A4B1B68D21A094B1B684FF47A71CE
:1011100001FB03F39A4204D300F032FB024B00229E
:101120001A7000BF80BD00BF9C0000209800002006
:101130000000002080B584B000AF114B1B68002B6D
:101140000DD1104B1A683B1D0F49184604F0EAFDFB
:101150003B1D1A460D490E48FFF768F80CE0084B96
:101160001A683B1D0B49184604F0DCFD3B1D1A466E
:1011700006490748FFF75AF800BF1037BD4680BD43
:10118000FC03002000000020C46A00083802002090
:1011900008010020E06B0008B0B588B000AF7860AF
:1011A00001F0C4FC0023FB6000233B61134BBB61D7
:1011B0000123FB6107F10C0207F1100311461846E9
:1011C00001F09CFD0346002B02D001F0D5FC11E09C
:1011D0007B6800221C46154622462B460749022002
:1011E00001F034FC0346002B02D001F0C5FC01E005
:1011F00001F0C2FC2037BD46B0BD00BF00F80108B9
:1012000080B483B000AF074B1B687B607B68B3F191
:10121000FF3F01D10A2300E07B6818460C37BD462A
:1012200080BC704700F8010880B400AF034B002277
:101230001A7000BFBD4680BC704700BFF503002098
:1012400080B58AB000AF5A4B1B7883F00103DBB244
:10125000002B1BD0574B1B78002B00F0A480564B63
:101260001B68564A1360534B00221A70534B1A687E
:1012700007F11C035249184604F054FD07F11C0302
:101280001A4650495048FEF7D1FF8CE04F4B1B786F
:10129000DBB2002B14D04E4B1B68013B1A46464B69
:1012A0001A60464B4FF0FF321A6001F0E1F9034635
:1012B000484A13603F4B01221A70444B00221A70B7
:1012C0003C4B1B7883F00103DBB2002B29D03B4B56
:1012D0001B68002B04DB394B1B68374A136005E0A1
:1012E0003B4B1B68013B1A46334B1A60324B1A6862
:1012F00007F110033249184604F014FD07F11003FA
:101300001A4630493048FEF791FF2A4B01221A70E5
:1013100001F0AEF903462F4A1360284B4FF0FF321D
:101320001A60244B1B78002B3ED001F0A1F9024635
:10133000284B1B68D31AB3F57A7F35D31E4B1A6836
:101340003B1D1F49184604F0EDFC3B1D1A461D4984
:101350001D48FEF76BFF184B1B68013B164A1360D4
:1013600001F086F903461B4A1360134B1B68002BE0
:101370001ADA104B00221A700D4B00221A700F4B14
:101380004FF0FF321A6000F0FBF9114B1A683B1D59
:101390001149184604F0C6FC3B1D1A4609490A4883
:1013A000FEF744FF00E000BF2837BD4680BD00BF08
:1013B000F5030020A4040020A80400200800002059
:1013C000E06B00083802002008010020F403002030
:1013D00000000020AC040020C46A000880B584B07E
:1013E00000AF084B1A683B1D0749184604F09AFCE9
:1013F0003B1D1A4605490648FEF718FF00BF103787
:10140000BD4680BD00000020E06B000838020020CF
:101410000801002080B500AF2021364801F09AFE77
:101420000346012B05D1344A34493548FEF7FEFE08
:1014300004E0344A31493248FEF7F8FE40212D4895
:1014400001F088FE0346012B05D12B4A2E492C487A
:10145000FEF7ECFE04E02B4A2B492948FEF7E6FE96
:101460008021244801F076FE0346012B05D1224A53
:1014700026492348FEF7DAFE04E0224A23492048A1
:10148000FEF7D4FE01211B4801F064FE0346012B48
:1014900005D1194A1E491A48FEF7C8FE04E0194A48
:1014A0001B491748FEF7C2FE0421124801F052FE04
:1014B0000346012B05D1174A17491148FEF7B6FE1E
:1014C00004E0164A14490E48FEF7B0FE042109480C
:1014D00001F040FE0346012B05D10E4A1049084891
:1014E000FEF7A4FE04E00D4A0D490548FEF79EFEF6
:1014F00000BF80BD00080140E46B0008E802002046
:1015000008010020F06B0008D802002058020020DB
:1015100068020020006C0008780200200C6C0008B3
:101520008802002080B582B000AF78607B681B7FA6
:10153000012B07D10021786802F06CFE03462B4A8C
:10154000136016E07B681B7F022B07D104217868AB
:1015500002F060FE0346264A13600AE07B681B7FA8
:10156000042B06D10821786802F054FE0346214A74
:1015700013601E4B1B68002B33D01D4B1B68002BC8
:101580002FD01C4B1B68002B2BD0184B1A68184B04
:101590001B689A4209D2164B1A68164B1B689A426E
:1015A00003D2154B01221A7012E0124B1A68104B2D
:1015B0001B689A4209D20E4B1A680C4B1B689A4260
:1015C00003D20D4B02221A7002E00B4B00221A705C
:1015D000064B00221A60064B00221A60054B0022BF
:1015E0001A6000BF0837BD4680BD00BFE003002081
:1015F000E4030020E8030020EC03002080B59AB04B
:1016000000AF3B4664220021184604F085FC00230D
:1016100087F86730002387F86630002387F8653045
:101620003AE02B4B1B78DBB2012B14D1294B012262
:101630001A60294A29492A48FEF7F8FD97F86530CB
:1016400068333B44012203F8682C97F86730013374
:1016500087F8673018E01E4B1B78DBB2022B13D1E2
:101660001C4B02221A601F4A1C491D48FEF7DEFD72
:1016700097F8653068333B44022203F8682C97F8EA
:101680006630013387F866300A2000F0FBFF97F8D8
:101690006530013387F8653097F86530632BC0D922
:1016A00097F8672097F866309A4206D90E4804F0FA
:1016B000FBFA084B01221A6005E00C4804F0F4FA2A
:1016C000044B02221A6000BF6837BD4680BD00BFD0
:1016D000EC030020F00300201C6C0008C80300206D
:1016E00008010020246C00082C6C0008586C0008CD
:1016F00080B500AF204B1B68022B1BD1012220219B
:101700001E4801F03EFD012280211C4801F039FDF8
:1017100001224FF48071194801F033FD002240216D
:10172000164801F02EFD00224FF40071134801F01D
:1017300028FD1EE0104B1B68012B1AD101224FF42B
:1017400000710E4801F01DFD012240210B4801F0FF
:1017500018FD01228021094801F013FD00222021FB
:10176000064801F00EFD00224FF48071034801F09D
:1017700008FD00BF80BD00BFF0030020000C014049
:1017800080B500AF002220211F4801F0FAFC0022A2
:1017900040211D4801F0F5FC002280211A4801F08B
:1017A000F0FC00224FF48071174801F0EAFC00229F
:1017B0004FF40071144801F0E4FC01221021134899
:1017C00001F0DFFC4FF49670FEF7DCFD00221021E3
:1017D0000E4801F0D6FC4FF49670FEF7D3FD0122BF
:1017E00010210A4801F0CDFC4FF49670FEF7CAFDB7
:1017F00000221021054801F0C4FC4FF49670FEF75A
:10180000C1FD00BF80BD00BF000C014000080140C9
:1018100080B500AF002220210D4801F0B2FC00226B
:1018200040210B4801F0ADFC00228021084801F066
:10183000A8FC00224FF48071054801F0A2FC0022B0
:101840004FF40071024801F09CFC00BF80BD00BF56
:10185000000C014080B590B000AF78600B46FB7083
:10186000FB7807F10C007A68094904F05BFA07F18C
:101870000C031846FEF776FC03469AB207F10C01FA
:101880006423044803F024F800BF4037BD4680BD00
:10189000846C00085C04002080B590B000AF7860D4
:1018A00007F10C007B68134A322104F005FA07F1B6
:1018B0000C031846FEF756FC03469AB207F10C01DA
:1018C0004FF0FF330C4803F003F80C4A07F108030C
:1018D0001268114619800233120C1A7007F10801C0
:1018E0004FF0FF330322044802F0F2FF00BF4037FD
:1018F000BD4680BD946C00085C0400209C6C000810
:1019000080B584B000AF0346FB80FB88042B33D145
:1019100004211B4801F01EFC0346FB73FB7B012BDB
:1019200017D1184B1B7883F00103DBB2002B10D0CA
:101930001548FFF7B1FF00221021144801F021FCE7
:1019400000F02AF8FFF7F6FB0E4B01221A7000BFD9
:1019500012E0FB7B002B0FD10D4B00221A70094BBC
:1019600000221A700B48FFF797FFFFF709FF0122CB
:101970001021064801F005FC00BF1037BD4680BDB0
:10198000000C014004000020406B000800080140EA
:10199000F5030020A06C000880B500AF2021184896
:1019A00001F0D8FB0346012B04D101211548FFF7B4
:1019B00051FF03E001211448FFF74CFF802110483C
:1019C00001F0C8FB0346012B04D101210F48FFF7AA
:1019D00041FF03E001210E48FFF73CFF02210D48C3
:1019E00001F0B8FB0346002B04D101210A48FFF7A0
:1019F00031FF03E001210948FFF72CFF00BF80BD44
:101A000000080140A86C0008AC6C0008B06C00082D
:101A1000B46C0008000C0140B86C0008BC6C0008F5
:101A200080B584B004AF00F0CBFD00F05DFA00F0AB
:101A30005BFB00F02FFB00F099FA0021AB4802F0AD
:101A400089F80421A94802F085F80821A74802F086
:101A500081F8A749A748FEF7C8FB0023029300239B
:101A60000193082300930223A34AA449A148FEF747
:101A700081FB00230293002301930223009302239E
:101A80009F4AA0499B48FEF775FB00230293002361
:101A900001930623009302239B4A9C499548FEF735
:101AA00069FB002302930023019303230093022385
:101AB000974A98498F48FEF75DFB00230293002365
:101AC0000193052300930223934A94498948FEF722
:101AD00051FB002302930023019307230093022369
:101AE0008F4A90498348FEF745FB00230293002369
:101AF00001930823009302238B4A8C497D48FEF70B
:101B000039FB00230293002301930923009302234E
:101B1000874A88497748FEF72DFB0023029300236C
:101B200001930D2300930123834A84497148FEF7F2
:101B300021FB00230293002301930E230093012332
:101B40007F4A80496B48FEF715FB00230293002370
:101B500001930F23009301237B4A7C496548FEF7DC
:101B600009FB002302930023019312230093012316
:101B7000774A78495F48FEF7FDFA00230293002375
:101B80000193012300930123734A74495948FEF7D6
:101B9000F1FA00230293002301930C230093012305
:101BA0006F4A70495348FEF7E5FA00230293002379
:101BB00001931023009301236B4A6C494D48FEF7B3
:101BC000D9FA0023029300230193112300930123E8
:101BD000674A68494748FEF7CDFA0023029300237D
:101BE0000193122300930123634A64494148FEF79D
:101BF000C1FA0023029300230193132300930123CE
:101C00005F4A60493B48FEF7B5FA00230293002380
:101C100001931423009301235B4A5C493548FEF786
:101C2000A9FA0023029300230193152300930123B3
:101C3000574A58492F48FEF79DFA00230293002384
:101C400001930E2300930223534A54492948FEF777
:101C500091FA00230293002301930F2300930223A0
:101C60004F4A50492348FEF785FA00230293002388
:101C700001931023009302234B4A4C491D48FEF761
:101C800079FA002302930023019311230093022386
:101C9000474A48491748FEF76DFA0023029300238C
:101CA0000193122300930223434A44491148FEF74B
:101CB00061FA00230293002301931323009302236C
:101CC0003F4A40490B48FEF755FA01223E49084871
:101CD00002F089FE40F6C41000F0D4FCFFF790FA41
:101CE00003463A4A1360FFF789FC71E014040020B0
:101CF0005C04002008010020C06C000838020020AD
:101D0000C46C000848020020C86C0008580200207B
:101D1000CC6C0008E8020020D06C0008D80200203B
:101D2000D46C000868020020D86C000878020020FB
:101D3000DC6C000888020020E06C0008980200209B
:101D4000E46C0008A8020020E86C0008B80200203B
:101D5000EC6C0008C8020020F06C0008F8020020BB
:101D6000F46C000808030020F86C00081803002039
:101D7000FC6C000828030020006D000838030020D8
:101D8000046D000848030020086D00085803002077
:101D90000C6D000868030020106D00087803002017
:101DA000146D000888030020186D000898030020B7
:101DB0001C6D0008A8030020206D0008B803002057
:101DC000246D0008C80300209400002000000020BB
:101DD000FFF78EF9FFF71EFBFFF700FB3848FEF711
:101DE0005BFC374B1B68B3F1FF3F03D0344B1B68E0
:101DF000002B05D1324B0A221A603148FEF7E6FB70
:101E00002F4B1A792F4B1A702D4B5A792E4B1A7073
:101E10002B4B9A792D4B1A70294BDA792C4B1A706F
:101E2000274B1A7A2B4B1A70012210212A4801F0F5
:101E3000A8F94FF49670FEF7A5FA00221021264863
:101E400001F09FF94FF49670FEF79CFA01221021E1
:101E5000214801F096F94FF49670FEF793FA0022AC
:101E600010211D4801F08DF94FF42F70FEF78AFA0A
:101E700001211A48FFF7EEFC4FF49670FEF782FA44
:101E800001211748FFF7E6FC4FF49670FEF77AFA47
:101E900001211448FFF7DEFC322000F0F3FBFFF7CE
:101EA000CFF9FFF725F9FEF72DFCFEF7F3FAFEF761
:101EB00025FBFEF757FBFEF727FA00BFECE700BF54
:101EC0000804002000040020010400200204002077
:101ED000030400200500002000080140B46C000845
:101EE000AC6C0008B86C000880B590B000AF07F18A
:101EF000180328220021184604F00EF83B1D00228A
:101F00001A605A609A60DA601A610223BB61012389
:101F1000BB621023FB6202237B630023BB634FF48D
:101F20006013FB6307F11803184601F05BF90346E1
:101F3000002B01D000F05CF90F237B600223BB6013
:101F40000023FB604FF480633B6100237B613B1DFA
:101F50000221184601F0C8FB0346002B01D000F017
:101F600047F900BF4037BD4680BD000080B58AB04C
:101F700000AF07F1180300221A605A609A60DA6015
:101F800007F1100300221A605A603B4600221A60D3
:101F90005A609A60DA603D4B3D4A1A603B4B4722DB
:101FA0005A603A4B00229A60384B4FF6FF72DA6063
:101FB000364B00221A61354B00225A61334B002206
:101FC0009A61324801F01EFD0346002B01D000F05B
:101FD0000FF94FF48053BB6107F1180319462B48E2
:101FE00002F050F80346002B01D000F001F9274819
:101FF00001F057FD0346002B01D000F0F9F8002353
:102000003B6100237B6107F1100319461F4802F072
:102010009FFB0346002B01D000F0EAF800233B6051
:1020200001237B600023BB600023FB603B46002252
:102030001946164801F08AFF0346002B01D000F034
:10204000D7F83B4604221946104801F07FFF0346AB
:10205000002B01D000F0CCF83B46082219460B4873
:1020600001F074FF0346002B01D000F0C1F83B469D
:102070000C221946054801F069FF0346002B01D0E8
:1020800000F0B6F800BF2837BD4680BD140400201C
:10209000002C014080B500AF114B124A1A60104B62
:1020A0004FF4E1325A600E4B00229A600C4B002232
:1020B000DA600B4B00221A61094B0C225A61084B63
:1020C00000229A61064B0022DA61054802F0B0FB5B
:1020D0000346002B01D000F08BF800BF80BD00BF8D
:1020E0005C0400200044004080B586B000AF07F1DA
:1020F000080300221A605A609A60DA60384B9B69C4
:10210000374A43F004039361354B9B6903F00403A2
:102110007B607B68324B9B69314A43F008039361D3
:102120002F4B9B6903F008033B603B6800221021A2
:102130002C4801F026F800224FF478712A4801F06B
:1021400020F81023BB600123FB6000233B610223C6
:102150007B6107F108031946224800F077FEE0236F
:10216000BB600023FB6000233B6107F108031946B5
:102170001C4800F06BFE40F60343BB600023FB608D
:1021800000233B6107F108031946174800F05EFE83
:102190000423BB60154BFB6000233B6107F1080380
:1021A0001946114800F052FE4FF47873BB600123CA
:1021B000FB6000233B6102237B6107F108031946A2
:1021C000094800F043FE00220521082000F055FBDD
:1021D000082000F06EFB00BF1837BD4680BD00BF71
:1021E0000010024000080140000C014000002110D6
:1021F00080B400AF00BFBD4680BC704780B582B0E0
:1022000000AF114B9B69104A43F0010393610E4BE1
:102210009B6903F001037B607B680B4BDB690A4A17
:1022200043F08053D361084BDB6903F080533B607C
:102230003B6800220F216FF0010000F01EFB00BF81
:102240000837BD4680BD00BF0010024080B58AB08F
:1022500000AF786007F1180300221A605A609A6094
:10226000DA607B681B68234A93422DD1224B9B691D
:10227000214A43F4006393611F4B9B6903F400639D
:102280007B617B691C4B9B691B4A43F00403936190
:10229000194B9B6903F004033B613B694FF4706386
:1022A000BB610023FB6101233B6207F11803194660
:1022B000124800F0CBFD002205211B2000F0DDFAC2
:1022C0001B2000F0F6FA10E07B681B68B3F1804F2A
:1022D0000BD1094BDB69084A43F00103D361064B7C
:1022E000DB6903F00103FB60FB6800BF2837BD46D4
:1022F00080BD00BF002C01400010024000080140DA
:1023000080B588B000AF786007F1100300221A6032
:102310005A609A60DA607B681B681F4A934237D123
:102320001E4BDB691D4A43F40033D3611B4BDB6951
:1023300003F40033FB60FB68184B9B69174A43F0BA
:1023400004039361154B9B6903F00403BB60BB68F6
:1023500004233B6102237B610323FB6107F110032C
:1023600019460F4800F072FD08233B6100237B6192
:102370000023BB6107F110031946094800F066FD10
:1023800000220521262000F078FA262000F091FA9C
:1023900000BF2037BD4680BD004400400010024011
:1023A0000008014080B400AF00BFFDE780B400AF7B
:1023B00000BFFDE780B400AF00BFFDE780B400AF11
:1023C00000BFFDE780B400AF00BFFDE780B400AF01
:1023D00000BFBD4680BC704780B500AF00F036F945
:1023E00003F012FA0346012B01D003F06DFA00BF8F
:1023F00080BD80B500AF042000F0DCFE00BF80BDD2
:1024000080B500AF024801F0B1FC00BF80BD00BF45
:102410001404002080B500AF024802F009FB00BFA1
:1024200080BD00BF5C04002080B586B000AFF860BE
:10243000B9607A6000237B610AE0AFF30080014657
:10244000BB685A1CBA60CAB21A707B6901337B61DF
:102450007A697B689A42F0DB7B6818461837BD467C
:1024600080BD80B586B000AFF860B9607A600023A7
:102470007B6109E0BB685A1CBA601B781846AFF351
:1024800000807B6901337B617A697B689A42F1DB6A
:102490007B6818461837BD4680BD80B483B000AF56
:1024A00078604FF0FF3318460C37BD4680BC70474C
:1024B00080B483B000AF786039603B684FF400525D
:1024C0005A60002318460C37BD4680BC704780B464
:1024D00083B000AF7860012318460C37BD4680BC3E
:1024E000704780B485B000AFF860B9607A600023AF
:1024F00018461437BD4680BC7047000080B586B0D2
:1025000000AF7860144A154BD31A7B617B693B613D
:10251000134B1B68002B02D1114B124A1A60104B4F
:102520001A687B6813443A699A4207D203F052FD55
:1025300003460C221A604FF0FF3309E0084B1B687A
:10254000FB60074B1A687B681344054A1360FB68FD
:1025500018461837BD4680BD00500020000400001A
:10256000B0040020E006002080B400AF00BFBD46EC
:1025700080BC7047FFF7F8FF0B480C490C4A00235A
:1025800002E0D458C4500433C4188C42F9D3094A29
:10259000094C002301E013600432A242FBD303F094
:1025A0001FFDFFF73DFA7047000000207400002077
:1025B000986D000878000020DC060020FEE700008F
:1025C00080B500AF084B1B68074A43F01003136047
:1025D000032000F047F90F2000F008F8FFF70EFE87
:1025E0000023184680BD00BF0020024080B582B0A5
:1025F00000AF7860124B1A68124B1B7819464FF4E3
:102600007A73B3FBF1F3B2FBF3F3184600F05FF912
:102610000346002B01D001230EE07B680F2B0AD864
:10262000002279684FF0FF3000F027F9064A7B68F6
:102630001360002300E0012318460837BD4680BD23
:102640000C000020140000201000002080B400AF17
:10265000054B1B781A46054B1B681344034A13604D
:1026600000BFBD4680BC704714000020B4040020A9
:1026700080B400AF024B1B681846BD4680BC704753
:10268000B404002080B584B000AF7860FFF7F0FF9D
:10269000B8607B68FB60FB68B3F1FF3F05D00A4B75
:1026A0001B781A46FB681344FB6000BFFFF7E0FF8E
:1026B0000246BB68D31AFA689A42F7D800BF00BF37
:1026C0001037BD4680BD00BF1400002080B485B027
:1026D00000AF78607B6803F00703FB600C4BDB689E
:1026E000BB60BA684FF6FF031340BB60FB681A0279
:1026F000BB68134343F0BF6343F40033BB60044A39
:10270000BB68D36000BF1437BD4680BC704700BFB4
:1027100000ED00E080B400AF044BDB681B0A03F05F
:1027200007031846BD4680BC704700BF00ED00E0BF
:1027300080B483B000AF0346FB7197F90730002BDC
:102740000BDBFB7903F01F02064997F907305B09A1
:10275000012000FA02F241F8232000BF0C37BD46E9
:1027600080BC704700E100E080B483B000AF034656
:102770003960FB7197F90730002B0ADB3B68DAB24E
:102780000C4997F907301201D2B20B4483F80023A9
:102790000AE03B68DAB20849FB7903F00F03043B17
:1027A0001201D2B20B441A7600BF0C37BD4680BC72
:1027B000704700BF00E100E000ED00E080B489B0A8
:1027C00000AFF860B9607A60FB6803F00703FB6153
:1027D000FB69C3F10703042B28BF0423BB61FB691A
:1027E0000433062B02D9FB69033B00E000237B6125
:1027F0004FF0FF32BB6902FA03F3DA43BB681A40B9
:102800007B699A404FF0FF317B6901FA03F3D943AA
:102810007B680B40134318462437BD4680BC704785
:1028200080B582B000AF78607B68013BB3F1807FF8
:1028300001D301230FE00A4A7B68013B53600F215B
:102840004FF0FF30FFF790FF054B00229A60044BDA
:1028500007221A60002318460837BD4680BD00BF16
:1028600010E000E080B582B000AF78607868FFF7D4
:102870002DFF00BF0837BD4680BD80B586B000AFD4
:102880000346B9607A60FB7300237B61FFF742FF68
:1028900078617A68B9687869FFF790FF024697F91E
:1028A0000F3011461846FFF75FFF00BF1837BD46CF
:1028B00080BD80B582B000AF0346FB7197F9073049
:1028C0001846FFF735FF00BF0837BD4680BD80B50D
:1028D00082B000AF78607868FFF7A2FF0346184621
:1028E0000837BD4680BD80B485B000AF7860002356
:1028F000FB737B6893F82130DBB2022B08D07B6836
:1029000004229A637B68002283F82020012320E0C0
:102910007B681B681A687B681B6822F00E021A60CD
:102920007B681B681A687B681B6822F001021A60CA
:102930007B681A6C7B68DB6B012101FA02F25A603A
:102940007B68012283F821207B68002283F8202005
:10295000FB7B18461437BD4680BC704780B584B0F9
:1029600000AF78600023FB737B6893F82130DBB203
:10297000022B05D07B6804229A630123FB7351E08C
:102980007B681B681A687B681B6822F00E021A605D
:102990007B681B681A687B681B6822F001021A605A
:1029A0007B681B68224A934229D07B681B68214AB6
:1029B000934222D07B681B681F4A93421AD07B68DF
:1029C0001B681E4A934212D07B681B681C4A9342C4
:1029D0000AD07B681B681B4A934202D14FF48013D4
:1029E0000EE04FF080730BE04FF4803308E04FF4BB
:1029F000805305E04FF4807302E0102300E00123D0
:102A0000114A53607B68012283F821207B680022F1
:102A100083F820207B685B6B002B03D07B685B6BAB
:102A200078689847FB7B18461037BD4680BD00BFCD
:102A3000080002401C0002403000024044000240F6
:102A4000580002406C00024000000240F0B587B020
:102A500000AFF860B960C7E900230123FB750023CC
:102A6000BB7500237B752F4B1B7E012B01D10223ED
:102A700054E02C4B01221A764CF2503000F0A8F8AA
:102A80000346FB75FB7D002B44D1FB68012B02D173
:102A900001237B7507E0FB68022B02D102237B75C3
:102AA00001E004237B750023BB752DE0BB7D5A003C
:102AB000BB6802EB030CBB7D1901D7E90023C1F110
:102AC0002006A1F1200022FA01F403FA06F63443AD
:102AD00023FA00F0044323FA01F5A3B21946604635
:102AE00000F05AF84CF2503000F072F80346FB75D3
:102AF0000D4B1B690C4A23F001031361FB7D002B76
:102B000007D1BB7D0133BB75BA7D7B7D9A42CDD3A6
:102B100000E000BF034B00221A76FB7D18461C37ED
:102B2000BD46F0BDB80400200020024080B483B050
:102B300000AF0023FB710D4B1B6903F08003002BDA
:102B40000DD00A4B0A4A5A60084B0A4A5A60074B92
:102B50001B6903F08003002B01D00123FB71FB797B
:102B600018460C37BD4680BC704700BF00200240AD
:102B700023016745AB89EFCD80B400AF054B1B69DE
:102B8000044A43F08003136100231846BD4680BC0D
:102B9000704700BF0020024080B483B000AF78606F
:102BA0000B467B80084B0022DA61084B1B69074A01
:102BB00043F0010313617B687A881A8000BF0C37E9
:102BC000BD4680BC704700BFB80400200020024012
:102BD00080B584B000AF7860FFF74AFDF86010E080
:102BE0007B68B3F1FF3F0CD07B68002B07D0FFF769
:102BF0003FFD0246FB68D31A7A689A4201D203234A
:102C000025E0154BDB6803F00103002BE8D1124BE4
:102C1000DB6803F02003002B02D00F4B2022DA6088
:102C20000D4BDB6803F01003002B0BD10A4BDB6963
:102C300003F00103002B05D1074BDB6803F004030D
:102C4000002B03D000F00AF8012300E0002318460F
:102C50001037BD4680BD00BF0020024080B483B065
:102C600000AF00237B60234BDB6803F01003002BD5
:102C700009D0214BDB6943F002031F4AD3617B6813
:102C800043F010037B601B4BDB6803F00403002B55
:102C900009D0194BDB6943F00103174AD3617B6804
:102CA00043F004037B60134BDB6903F00103002B4B
:102CB0000BD0114BDB6943F004030F4AD3610D4B7A
:102CC000DB690C4A23F00103D3617B6840F20112F7
:102CD000934206D1074BDB69064A23F00103D36117
:102CE00002E0044A7B68D36000BF0C37BD4680BC5D
:102CF000704700BF00200240B804002080B584B0B7
:102D000000AF786039600123FB730023BB602F4B59
:102D10001B7E012B01D1022353E02C4B01221A769A
:102D20007B681B68022B16D14CF25030FFF750FF26
:102D30000346002B41D1012000F04CF84CF25030FA
:102D4000FFF746FF0346FB73214B1B69204A23F024
:102D50000403136131E04CF25030FFF739FF0346B2
:102D6000002B2AD13B684FF0FF321A607B689B68CA
:102D7000BB6019E0B86800F049F84CF25030FFF73A
:102D800027FF0346FB73124B1B69114A23F0020312
:102D90001361FB7B002B03D03B68BA681A600CE020
:102DA000BB6803F58063BB607B68DB689A027B6865
:102DB0009B681344BA689A42DCD3044B00221A760B
:102DC000FB7B18461037BD4680BD00BFB80400200D
:102DD0000020024080B483B000AF7860094B00222D
:102DE000DA61094B1B69084A43F004031361064B7F
:102DF0001B69054A43F04003136100BF0C37BD4611
:102E000080BC7047B80400200020024080B483B02A
:102E100000AF78600B4B0022DA610B4B1B690A4A4A
:102E200043F002031361084A7B685361064B1B6938
:102E3000054A43F04003136100BF0C37BD4680BC18
:102E4000704700BFB80400200020024080B48BB05F
:102E500000AF7860396000237B6200233B6269E148
:102E600001227B6A02FA03F3FB613B681B68FA6983
:102E70001340BB61BA69FB699A4240F058813B68D4
:102E80005B689A4A93425ED0984A934275D8984AB2
:102E9000934258D0964A93426FD8964A934252D062
:102EA000944A934269D8944A93424CD0924A9342AE
:102EB00063D8924A934246D0904A93425DD8122BEF
:102EC0002AD8122B59D801A252F823F0472F000814
:102ED000212F0008332F0008752F00087B2F0008D2
:102EE0007B2F00087B2F00087B2F00087B2F00081A
:102EF0007B2F00087B2F00087B2F00087B2F00080A
:102F00007B2F00087B2F00087B2F00087B2F0008F9
:102F1000292F00083D2F0008794A934213D02CE056
:102F20003B68DB683B6229E03B68DB6804333B625B
:102F300024E03B68DB6808333B621FE03B68DB68EA
:102F40000C333B621AE03B689B68002B02D10423E0
:102F50003B6213E03B689B68012B05D108233B6271
:102F60007B68FA691A6109E008233B627B68FA69A9
:102F70005A6103E000233B6200E000BFBB69FF2B06
:102F800001D87B6801E07B6804337B61BB69FF2B60
:102F900002D87B6A9B0002E07B6A083B9B003B6196
:102FA0007B691A680F213B6901FA03F3DB431A407E
:102FB000396A3B6901FA03F31A437B691A603B687B
:102FC0005B6803F08053002B00F0B1804D4B9B6990
:102FD0004C4A43F0010393614A4B9B6903F00103A0
:102FE000BB60BB68484A7B6A9B08023352F82330B7
:102FF000FB607B6A03F003039B000F2202FA03F3DA
:10300000DB43FA681340FB607B68404A934213D06D
:103010007B683F4A93420DD07B683E4A934207D07B
:103020007B683D4A934201D1032306E0042304E078
:10303000022302E0012300E000237A6A02F0030287
:1030400092009340FA681343FB602F497B6A9B0808
:103050000233FA6841F823203B685B6803F480136D
:10306000002B06D02D4B9A682C49BB6913438B600B
:1030700006E02A4B9A68BB69DB43284913408B6002
:103080003B685B6803F40013002B06D0234BDA681F
:103090002249BB691343CB6006E0204BDA68BB6969
:1030A000DB431E491340CB603B685B6803F400338D
:1030B000002B06D0194B5A681849BB6913434B6063
:1030C00006E0164B5A68BB69DB43144913404B605A
:1030D0003B685B6803F48033002B21D00F4B1A68E8
:1030E0000E49BB6913430B6021E000BF00003210A2
:1030F000000031100000221000002110000012100A
:1031000000001110001002400000014000080140C2
:10311000000C014000100140001401400004014077
:103120000B4B1A68BB69DB43094913400B607B6A90
:1031300001337B623B681A687B6A22FA03F3002B37
:103140007FF48EAE00BF00BF2C37BD4680BC7047F9
:103150000004014080B485B000AF78600B467B80EE
:103160007B689A687B881340002B02D00123FB7395
:1031700001E00023FB73FB7B18461437BD4680BC7F
:10318000704780B483B000AF78600B467B801346F5
:103190007B707B78002B03D07A887B681A6103E010
:1031A0007B881A047B681A6100BF0C37BD4680BC5F
:1031B0007047000080B582B000AF0346FB80084B2B
:1031C0005A69FB881340002B06D0054AFB885361DF
:1031D000FB881846FEF794FB00BF0837BD4680BD4C
:1031E0000004014080B586B000AF78607B68002B9A
:1031F00001D1012372E27B681B6803F00103002BFD
:1032000000F08780924B5B6803F00C03042B0CD01A
:103210008F4B5B6803F00C03082B12D18C4B5B685F
:1032200003F48033B3F5803F0BD1894B1B6803F463
:103230000033002B6CD07B685B68002B68D10123C6
:103240004CE27B685B68B3F5803F06D1804B1B681E
:103250007F4A43F4803313602EE07B685B68002B69
:103260000CD17B4B1B687A4A23F480331360784B74
:103270001B68774A23F4802313601DE07B685B683A
:10328000B3F5A02F0CD1724B1B68714A43F4802315
:1032900013606F4B1B686E4A43F4803313600BE07E
:1032A0006B4B1B686A4A23F480331360684B1B68BE
:1032B000674A23F4802313607B685B68002B13D07C
:1032C000FFF7D6F9386108E0FFF7D2F902463B690B
:1032D000D31A642B01D9032300E25D4B1B6803F46E
:1032E0000033002BF0D014E0FFF7C2F9386108E09A
:1032F000FFF7BEF902463B69D31A642B01D90323B9
:10330000ECE1534B1B6803F40033002BF0D100E0D9
:1033100000BF7B681B6803F00203002B63D04C4B9B
:103320005B6803F00C03002B0BD0494B5B6803F088
:103330000C03082B1CD1464B5B6803F48033002B35
:1033400016D1434B1B6803F00203002B05D07B68AA
:103350001B69012B01D00123C0E13D4B1B6823F009
:10336000F8027B685B69DB00394913430B603AE084
:103370007B681B69002B20D0364B01221A60FFF7B7
:1033800077F9386108E0FFF773F902463B69D31A11
:10339000022B01D90323A1E12D4B1B6803F002038B
:1033A000002BF0D02A4B1B6823F0F8027B685B6986
:1033B000DB00274913430B6015E0264B00221A60FF
:1033C000FFF756F9386108E0FFF752F902463B690A
:1033D000D31A022B01D9032380E11D4B1B6803F094
:1033E0000203002BF0D17B681B6803F00803002B5D
:1033F0003AD07B689B69002B19D0174B01221A60C9
:10340000FFF736F9386108E0FFF732F902463B6909
:10341000D31A022B01D9032360E10D4B5B6A03F041
:103420000203002BF0D0012000F0CEFA1CE00A4B82
:1034300000221A60FFF71CF938610FE0FFF718F956
:1034400002463B69D31A022B08D9032346E100BF89
:10345000001002400000424280044242924B5B6AEC
:1034600003F00203002BE9D17B681B6803F004031F
:10347000002B00F0A6800023FB758B4BDB6903F06B
:103480008053002B0DD1884BDB69874A43F0805372
:10349000D361854BDB6903F08053BB60BB680123BC
:1034A000FB75824B1B6803F48073002B18D17F4B94
:1034B0001B687E4A43F480731360FFF7D9F83861C4
:1034C00008E0FFF7D5F802463B69D31A642B01D90F
:1034D000032303E1754B1B6803F48073002BF0D0CA
:1034E0007B68DB68012B06D16F4B1B6A6E4A43F089
:1034F000010313622DE07B68DB68002B0CD16A4B63
:103500001B6A694A23F001031362674B1B6A664A10
:1035100023F0040313621CE07B68DB68052B0CD1ED
:10352000614B1B6A604A43F0040313625E4B1B6AE3
:103530005D4A43F0010313620BE05B4B1B6A5A4A7E
:1035400023F001031362584B1B6A574A23F004030C
:1035500013627B68DB68002B15D0FFF789F83861B0
:103560000AE0FFF785F802463B69D31A41F2883238
:10357000934201D90323B1E04B4B1B6A03F00203D2
:10358000002BEED014E0FFF773F838610AE0FFF784
:103590006FF802463B69D31A41F28832934201D94F
:1035A00003239BE0404B1B6A03F00203002BEED188
:1035B000FB7D012B05D13C4BDB693B4A23F080535B
:1035C000D3617B68DB69002B00F08780364B5B683A
:1035D00003F00C03082B61D07B68DB69022B46D11A
:1035E000334B00221A60FFF743F8386108E0FFF719
:1035F0003FF802463B69D31A022B01D903236DE041
:10360000294B1B6803F00073002BF0D17B681B6A09
:10361000B3F5803F08D1244B5B6823F400327B680C
:103620009B68214913434B601F4B5B6823F4741262
:103630007B68196A7B685B6A0B431B4913434B60C9
:103640001B4B01221A60FFF713F8386108E0FFF7FF
:103650000FF802463B69D31A022B01D903233DE040
:10366000114B1B6803F00073002BF0D035E0104BBA
:1036700000221A60FEF7FCFF386108E0FEF7F8FF51
:1036800002463B69D31A022B01D9032326E0064BDD
:103690001B6803F00073002BF0D11EE07B68DB6930
:1036A000012B07D1012319E00010024000700040F7
:1036B000600042420B4B5B68FB60FB6803F48032A6
:1036C0007B681B6A9A4206D1FB6803F470127B6820
:1036D0005B6A9A4201D0012300E0002318461837A4
:1036E000BD4680BD0010024080B584B000AF786058
:1036F00039607B68002B01D10123D0E06A4B1B6845
:1037000003F007033A689A4210D9674B1B6823F00D
:10371000070265493B6813430B60634B1B6803F06A
:1037200007033A689A4201D00123B8E07B681B681E
:1037300003F00203002B20D07B681B6803F0040316
:10374000002B05D0594B5B68584A43F4E063536043
:103750007B681B6803F00803002B05D0534B5B68A4
:10376000524A43F460535360504B5B6823F0F002BD
:103770007B689B684D4913434B607B681B6803F073
:103780000103002B40D07B685B68012B07D1474BBE
:103790001B6803F40033002B15D101237FE07B6805
:1037A0005B68022B07D1414B1B6803F00073002BB1
:1037B00009D1012373E03D4B1B6803F00203002B8A
:1037C00001D101236BE0394B5B6823F003027B6876
:1037D0005B68364913434B60FEF74AFFF8600AE026
:1037E000FEF746FF0246FB68D31A41F28832934245
:1037F00001D9032353E02D4B5B6803F00C027B6877
:103800005B689B009A42EBD1274B1B6803F00703D0
:103810003A689A4210D2244B1B6823F007022249CF
:103820003B6813430B60204B1B6803F007033A68A7
:103830009A4201D0012332E07B681B6803F0040345
:10384000002B08D0194B5B6823F4E0627B68DB68CF
:10385000164913434B607B681B6803F00803002B79
:1038600009D0124B5B6823F460527B681B69DB0054
:103870000E4913434B6000F021F802460B4B5B6886
:103880001B0903F00F030A49CB5C22FA03F3094A30
:103890001360094B1B681846FEF7A8FE0023184664
:1038A0001037BD4680BD00BF00200240001002401E
:1038B000286D00080C0000201000002080B487B0A4
:1038C00000AF0023FB600023BB6000237B6100236B
:1038D0007B6000233B611E4B5B68FB60FB6803F071
:1038E0000C03042B02D0082B03D027E0194B3B61BB
:1038F00027E0FB689B0C03F00F03174AD35C7B6047
:10390000FB6803F48033002B10D0114B5B685B0C19
:1039100003F00103114AD35CBB607B680D4A03FBD3
:1039200002F2BB68B2FBF3F37B6104E07B680C4AF4
:1039300002FB03F37B617B693B6102E0054B3B616A
:1039400000BF3B6918461C37BD4680BC704700BFAE
:103950000010024000127A00406D0008506D00080F
:1039600000093D0080B400AF024B1B681846BD46FD
:1039700080BC70470C00002080B500AFFFF7F2FF5D
:103980000246054B5B681B0A03F007030349CB5C47
:1039900022FA03F3184680BD00100240386D00087B
:1039A00080B500AFFFF7DEFF0246054B5B68DB0A20
:1039B00003F007030349CB5C22FA03F3184680BDEA
:1039C00000100240386D000880B485B000AF786008
:1039D0000A4B1B680A4AA2FB03235B0A7A6802FBB4
:1039E00003F3FB6000BFFB685A1EFA60002BF9D19D
:1039F00000BF00BF1437BD4680BC70470C000020DC
:103A0000D34D621080B582B000AF78607B68002B28
:103A100001D1012341E07B6893F83D30DBB2002BFC
:103A200006D17B68002283F83C207868FEF70EFC04
:103A30007B68022283F83D207B681A687B68043328
:103A40001946104600F04EFC7B68012283F84620A0
:103A50007B68012283F83E207B68012283F83F20A7
:103A60007B68012283F840207B68012283F8412093
:103A70007B68012283F842207B68012283F843207F
:103A80007B68012283F844207B68012283F845206B
:103A90007B68012283F83D20002318460837BD4685
:103AA00080BD80B582B000AF78607B68002B01D10B
:103AB000012341E07B6893F83D30DBB2002B06D157
:103AC0007B68002283F83C20786800F039F87B6836
:103AD000022283F83D207B681A687B68043319460C
:103AE000104600F0FFFB7B68012283F846207B68CC
:103AF000012283F83E207B68012283F83F207B6807
:103B0000012283F840207B68012283F841207B68F2
:103B1000012283F842207B68012283F843207B68DE
:103B2000012283F844207B68012283F845207B68CA
:103B3000012283F83D20002318460837BD4680BD8A
:103B400080B483B000AF786000BF0C37BD4680BC46
:103B50007047000080B584B000AF78603960002302
:103B6000FB733B68002B04D17B6893F83E30DBB2DB
:103B700013E03B68042B04D17B6893F83F30DBB241
:103B80000BE03B68082B04D17B6893F84030DBB234
:103B900003E07B6893F84130DBB2BB733B68002BDA
:103BA00004D17B6893F84230DBB213E03B68042B0E
:103BB00004D17B6893F84330DBB20BE03B68082B01
:103BC00004D17B6893F84430DBB203E07B6893F860
:103BD0004530DBB27B73BB7B012B02D17B7B012B9E
:103BE00001D00123B8E03B68002B04D17B6802229E
:103BF00083F83E2013E03B68042B04D17B6802224B
:103C000083F83F200BE03B68082B04D17B6802223D
:103C100083F8402003E07B68022283F841203B6860
:103C2000002B04D17B68022283F8422013E03B681A
:103C3000042B04D17B68022283F843200BE03B680D
:103C4000082B04D17B68022283F8442003E07B68C0
:103C5000022283F845203B680C2B41D801A252F880
:103C600023F000BF993C0008E13C0008E13C00085B
:103C7000E13C0008AB3C0008E13C0008E13C0008E6
:103C8000E13C0008BD3C0008E13C0008E13C0008C4
:103C9000E13C0008CF3C00087B681B68DA687B6861
:103CA0001B6842F00202DA601DE07B681B68DA687C
:103CB0007B681B6842F00402DA6014E07B681B68D2
:103CC000DA687B681B6842F00802DA600BE07B6808
:103CD0001B68DA687B681B6842F01002DA6002E059
:103CE0000123FB7300BFFB7B002B34D17B681B6877
:103CF00001223968184600F006FD7B681B68184AE7
:103D000093420ED07B681B68B3F1804F09D07B686B
:103D10001B68144A934204D07B681B68124A934282
:103D200011D17B681B689B6803F00703BB60BB680D
:103D3000062B10D07B681B681A687B681B6842F0F2
:103D400001021A6007E07B681B681A687B681B68C1
:103D500042F001021A60FB7B18461037BD4680BD59
:103D6000002C0140000400400008004080B584B0F1
:103D700000AF78607B681B68DB68FB607B681B6852
:103D80001B69BB60BB6803F00203002B20D0FB68FB
:103D900003F00203002B1BD07B681B686FF002024C
:103DA0001A617B6801221A777B681B689B6903F0A4
:103DB0000303002B03D07868FDF7B4FB05E07868B7
:103DC00000F075FA786800F07BFA7B6800221A77B9
:103DD000BB6803F00403002B20D0FB6803F004034E
:103DE000002B1BD07B681B686FF004021A617B6894
:103DF00002221A777B681B689B6903F44073002BCF
:103E000003D07868FDF78EFB05E0786800F04FFA84
:103E1000786800F055FA7B6800221A77BB6803F0D7
:103E20000803002B20D0FB6803F00803002B1BD0F5
:103E30007B681B686FF008021A617B6804221A779E
:103E40007B681B68DB6903F00303002B03D07868F1
:103E5000FDF768FB05E0786800F029FA786800F063
:103E60002FFA7B6800221A77BB6803F01003002B3F
:103E700020D0FB6803F01003002B1BD07B681B686D
:103E80006FF010021A617B6808221A777B681B6842
:103E9000DB6903F44073002B03D07868FDF742FB25
:103EA00005E0786800F003FA786800F009FA7B68AA
:103EB00000221A77BB6803F00103002B0CD0FB68CB
:103EC00003F00103002B07D07B681B686FF0010231
:103ED0001A61786800F0E2F9BB6803F08003002BF8
:103EE0000CD0FB6803F08003002B07D07B681B68B5
:103EF0006FF080021A61786800F091FCBB6803F0F3
:103F00004003002B0CD0FB6803F04003002B07D0CC
:103F10007B681B686FF040021A61786800F0D9F97D
:103F2000BB6803F02003002B0CD0FB6803F02003D8
:103F3000002B07D07B681B686FF020021A6178683D
:103F400000F064FC00BF1037BD4680BD80B586B070
:103F500000AFF860B9607A600023FB75FB6893F8E6
:103F60003C30012B01D1022388E0FB68012283F859
:103F70003C207B68002B1BD1FB681868BB68196864
:103F8000BB685A68BB68DB6800F01AFAFB681B68FC
:103F90009A69FB681B6822F00C029A61FB681B6837
:103FA0009969BB689A68FB681B680A439A6160E07C
:103FB0007B68042B1CD1FB681868BB681968BB6858
:103FC0005A68BB68DB6800F083FAFB681B689A6973
:103FD000FB681B6822F440629A61FB681B68996960
:103FE000BB689B681A02FB681B680A439A6140E041
:103FF0007B68082B1BD1FB681868BB681968BB6815
:104000005A68BB68DB6800F0CEFAFB681B68DA69A7
:10401000FB681B6822F00C02DA61FB681B68D96937
:10402000BB689A68FB681B680A43DA6121E07B6819
:104030000C2B1CD1FB681868BB681968BB685A68F0
:10404000BB68DB6800F0EAFAFB681B68DA69FB68AA
:104050001B6822F44062DA61FB681B68D969BB689F
:104060009B681A02FB681B680A43DA6101E00123BE
:10407000FB75FB68002283F83C20FB7D184618374F
:10408000BD4680BD80B584B000AF78603960002344
:10409000FB737B6893F83C30012B01D10223B4E021
:1040A0007B68012283F83C207B68022283F83D2054
:1040B0007B681B689B68BB60BB6823F07703BB60B1
:1040C000BB6823F47F43BB607B681B68BA689A6057
:1040D0003B681B68B3F5005F3ED0B3F5005F00F2AC
:1040E0008780B3F5805F00F08680B3F5805F7FD86E
:1040F000702B1AD0702B7BD8602B50D0602B77D8C8
:10410000502B3CD0502B73D8402B58D0402B6FD81D
:10411000302B64D0302B6BD8202B60D0202B67D86D
:10412000002B5CD0102B5AD062E07B6818683B688B
:1041300099683B685A683B68DB6800F0C5FA7B68A1
:104140001B689B68BB60BB6843F07703BB607B6800
:104150001B68BA689A604FE07B6818683B6899688A
:104160003B685A683B68DB6800F0AEFA7B681B6806
:104170009A687B681B6842F480429A603CE07B68E6
:1041800018683B6859683B68DB681A4600F072F9AA
:104190007B681B685021184600F07CFA2CE07B6895
:1041A00018683B6859683B68DB681A4600F0CCF930
:1041B0007B681B686021184600F06CFA1CE07B6885
:1041C00018683B6859683B68DB681A4600F052F98A
:1041D0007B681B684021184600F05CFA0CE07B68A5
:1041E0001A683B681B681946104600F053FA03E052
:1041F0000123FB7300E000BF7B68012283F83D20B0
:104200007B68002283F83C20FB7B18461037BD46B4
:1042100080BD000080B485B000AF786039600023B5
:10422000FB603B680C2B31D801A252F823F000BF91
:10423000654200088D4200088D4200088D4200084A
:104240006F4200088D4200088D4200088D42000830
:10425000794200088D4200088D4200088D42000816
:10426000834200087B681B685B6BFB600FE07B6828
:104270001B689B6BFB600AE07B681B68DB6BFB6069
:1042800005E07B681B681B6CFB6000E000BFFB68FF
:1042900018461437BD4680BC704700BF80B483B059
:1042A00000AF786000BF0C37BD4680BC704780B45B
:1042B00083B000AF786000BF0C37BD4680BC70474C
:1042C00080B483B000AF786000BF0C37BD4680BCBF
:1042D000704780B483B000AF786000BF0C37BD4634
:1042E00080BC704780B485B000AF786039607B686F
:1042F0001B68FB607B682F4A93420BD07B68B3F14D
:10430000804F07D07B682C4A934203D07B682B4AAE
:10431000934208D1FB6823F07003FB603B685B6845
:10432000FA681343FB607B68224A93420BD07B6898
:10433000B3F1804F07D07B681F4A934203D07B685C
:104340001E4A934208D1FB6823F44073FB603B682C
:10435000DB68FA681343FB60FB6823F080023B686C
:104360005B691343FB607B68FA681A603B689A6874
:104370007B68DA623B681A687B689A627B680D4AE0
:10438000934203D13B681A697B681A637B680122F8
:104390005A617B681B6903F00103002B05D07B6821
:1043A0001B6923F001027B681A6100BF1437BD4608
:1043B00080BC7047002C0140000400400008004011
:1043C00080B487B000AFF860B9607A603B60FB688A
:1043D0001B6A3B61FB681B6A23F00102FB681A62DF
:1043E000FB689B697B61FB681F4A93420BD0FB68AB
:1043F000B3F1804F07D0FB681C4A934203D0FB689F
:104400001B4A934201D1012300E00023002B08D076
:104410007B6923F003037B617A697B6813437B61CB
:1044200003E07B6943F001037B617B6923F0F003C8
:104430007B613B681B01DBB27A6913437B613B699B
:1044400023F00A033B61BB6803F00A033A69134394
:104450003B61FB687A699A61FB683A691A6200BF3E
:104460001C37BD4680BC7047002C01400004004052
:104470000008004080B487B000AFF860B9607A608F
:10448000FB681B6A7B61FB681B6A23F00102FB6807
:104490001A62FB689B693B613B6923F0F0033B6157
:1044A0007B681B013A6913433B617B6923F00A0374
:1044B0007B617A69BB6813437B61FB683A699A61E7
:1044C000FB687A691A6200BF1C37BD4680BC704722
:1044D00080B487B000AFF860B9607A603B60FB6879
:1044E0001B6A7B61FB681B6A23F01002FB681A627F
:1044F000FB689B693B613B6923F440733B617B68CC
:104500001B023A6913433B613B6923F470433B61EF
:104510003B681B039BB23A6913433B617B6923F001
:10452000A0037B61BB681B0103F0A0037A691343FE
:104530007B61FB683A699A61FB687A691A6200BF1D
:104540001C37BD4680BC704780B487B000AFF860B0
:10455000B9607A60FB681B6A7B61FB681B6A23F0A9
:104560001002FB681A62FB689B693B613B6923F49C
:1045700070433B617B681B033A6913433B617B6972
:1045800023F0A0037B61BB681B017A6913437B6145
:10459000FB683A699A61FB687A691A6200BF1C3746
:1045A000BD4680BC704780B487B000AFF860B9608A
:1045B0007A603B60FB681B6A7B61FB681B6A23F4C3
:1045C0008072FB681A62FB68DB693B613B6923F020
:1045D00003033B613A697B6813433B613B6923F00A
:1045E000F0033B613B681B01DBB23A6913433B615B
:1045F0007B6923F400737B61BB681B0203F40073C7
:104600007A6913437B61FB683A69DA61FB687A690E
:104610001A6200BF1C37BD4680BC704780B487B0AB
:1046200000AFF860B9607A603B60FB681B6A7B6131
:10463000FB681B6A23F48052FB681A62FB68DB6923
:104640003B613B6923F440733B617B681B023A6921
:1046500013433B613B6923F470433B613B681B039D
:104660009BB23A6913433B617B6923F400537B613E
:10467000BB681B0303F400537A6913437B61FB6837
:104680003A69DA61FB687A691A6200BF1C37BD4675
:1046900080BC704780B485B000AF786039607B68BB
:1046A0009B68FB60FB6823F07003FB603A68FB6863
:1046B000134343F00703FB607B68FA689A6000BF0E
:1046C0001437BD4680BC704780B487B000AFF86037
:1046D000B9607A603B60FB689B687B617B6923F40F
:1046E0007F437B613B681A027B681A43BB681343B4
:1046F0007A6913437B61FB687A699A6000BF1C3753
:10470000BD4680BC704780B487B000AFF860B96028
:104710007A60BB6803F01F03012202FA03F37B6196
:10472000FB681A6A7B69DB431A40FB681A62FB6804
:104730001A6ABB6803F01F03796801FA03F31A438E
:10474000FB681A6200BF1C37BD4680BC7047000082
:1047500080B485B000AF786039607B6893F83C30F6
:10476000012B01D1022346E07B68012283F83C2023
:104770007B68022283F83D207B681B685B68FB60D6
:104780007B681B689B68BB60FB6823F07003FB6061
:104790003B681B68FA681343FB607B681B68FA6818
:1047A0005A607B681B68164A93420ED07B681B6870
:1047B000B3F1804F09D07B681B68124A934204D042
:1047C0007B681B68104A93420CD1BB6823F08003BE
:1047D000BB603B685B68BA681343BB607B681B685F
:1047E000BA689A607B68012283F83D207B680022CA
:1047F00083F83C20002318461437BD4680BC704720
:10480000002C0140000400400008004080B483B048
:1048100000AF786000BF0C37BD4680BC704780B4E5
:1048200083B000AF786000BF0C37BD4680BC7047D6
:1048300080B582B000AF78607B68002B01D1012386
:1048400042E07B6893F84130DBB2002B06D17B68F5
:10485000002283F840207868FDF752FD7B6824220F
:1048600083F841207B681B68DA687B681B6822F448
:104870000052DA60786800F0B7FD7B681B681A693F
:104880007B681B6822F490421A617B681B685A6936
:104890007B681B6822F02A025A617B681B68DA6811
:1048A0007B681B6842F40052DA607B6800225A641D
:1048B0007B68202283F841207B68202283F84220F5
:1048C0007B6800225A63002318460837BD4680BD26
:1048D00080B58AB002AFF860B9603B601346FB80D8
:1048E00000237B61FB6893F84130DBB2202B75D14C
:1048F000BB68002B02D0FB88002B01D101236EE0A6
:10490000FB6800225A64FB68212283F84120FDF7EE
:10491000AFFE7861FB68FA889A84FB68FA88DA84CB
:10492000FB689B68B3F5805F08D1FB681B69002BAF
:1049300004D10023FB61BB68BB6103E0BB68FB6182
:104940000023BB612EE03B6800937B69002280213D
:10495000F86800F01CFB0346002B05D0FB68202202
:1049600083F8412003233AE0FB69002B0BD1BB699C
:104970001B881A46FB681B68C2F308025A60BB69B1
:104980000233BB6107E0FB691A78FB681B685A6059
:10499000FB690133FB61FB68DB8C9BB2013B9AB284
:1049A000FB68DA84FB68DB8C9BB2002BCBD13B68C5
:1049B00000937B6900224021F86800F0E8FA034682
:1049C000002B05D0FB68202283F84120032306E05A
:1049D000FB68202283F84120002300E002231846D0
:1049E0002037BD4680BD80B584B000AFF860B960A7
:1049F0001346FB80FB6893F84230DBB2202B12D1C8
:104A0000BB68002B02D0FB88002B01D101230BE0F7
:104A1000FB6800221A63FB881A46B968F86800F040
:104A20000FFB034600E0022318461037BD4680BD49
:104A300080B5BAB000AF78607B681B681B68C7F8A8
:104A4000E4307B681B68DB68C7F8E0307B681B6874
:104A50005B69C7F8DC300023C7F8D8300023C7F8FB
:104A6000D430D7F8E43003F00F03C7F8D830D7F8C4
:104A7000D830002B0FD1D7F8E43003F02003002BFF
:104A800009D0D7F8E03003F02003002B03D078687A
:104A900000F0ECFB5BE2D7F8D830002B00F0DE80B2
:104AA000D7F8DC3003F00103002B06D1D7F8E03053
:104AB00003F49073002B00F0D180D7F8E43003F0BA
:104AC0000103002B0BD0D7F8E03003F48073002BE8
:104AD00005D07B685B6C43F001027B685A64D7F8B1
:104AE000E43003F00403002B0BD0D7F8DC3003F0E4
:104AF0000103002B05D07B685B6C43F002027B68EE
:104B00005A64D7F8E43003F00203002B0BD0D7F837
:104B1000DC3003F00103002B05D07B685B6C43F0B5
:104B200004027B685A64D7F8E43003F00803002BD2
:104B300011D0D7F8E03003F02003002B05D1D7F8CF
:104B4000DC3003F00103002B05D07B685B6C43F085
:104B500008027B685A647B685B6C002B00F0F28172
:104B6000D7F8E43003F02003002B08D0D7F8E0306A
:104B700003F02003002B02D0786800F077FB7B68FD
:104B80001B685B6903F04003002B14BF0123002363
:104B9000DBB2C7F8D4307B685B6C03F00803002BF2
:104BA00003D1D7F8D430002B4FD0786800F081FAC9
:104BB0007B681B685B6903F04003002B41D07B6876
:104BC0001B681433C7F89C30D7F89C3053E8003F7B
:104BD000C7F89830D7F8983023F04003C7F8D030A2
:104BE0007B681B681433D7F8D020C7F8A820C7F813
:104BF000A430D7F8A410D7F8A82041E80023C7F8BC
:104C0000A030D7F8A030002BD9D17B68DB6B002B0C
:104C100013D07B68DB6B7E4A5A637B68DB6B18467C
:104C2000FDF79CFE0346002B16D07B68DB6B5B6BAD
:104C30007A68D26B104698470EE0786800F093F9D6
:104C40000AE0786800F08FF906E0786800F08BF9E8
:104C50007B6800225A6475E100BF73E17B681B6BBF
:104C6000012B40F04F81D7F8E43003F01003002B04
:104C700000F04881D7F8E03003F01003002B00F07B
:104C800041810023BB607B681B681B68BB607B683D
:104C90001B685B68BB60BB687B681B685B6903F073
:104CA0004003002B00F0B6807B68DB6B1B685B6801
:104CB000A7F8BE30B7F8BE30002B00F045817B6806
:104CC0009B8DB7F8BE209A4280F03E817B68B7F892
:104CD000BE20DA857B68DB6B9B69202B00F0888027
:104CE0007B681B680C33C7F88830D7F8883053E8E6
:104CF000003FC7F88430D7F8843023F48073C7F8B6
:104D0000B8307B681B680C33D7F8B820C7F89420FC
:104D1000C7F89030D7F89010D7F8942041E80023D6
:104D2000C7F88C30D7F88C30002BD9D17B681B6842
:104D300014337B677B6F53E8003F3B673B6F23F087
:104D40000103C7F8B4307B681B681433D7F8B4206C
:104D5000C7F88020FB67F96FD7F8802041E800236F
:104D6000BB67BB6F002BE1D17B681B6814333B66CC
:104D70003B6E53E8003FFB65FB6D23F04003C7F833
:104D8000B0307B681B681433D7F8B020FA66BB6676
:104D9000B96EFA6E41E800237B667B6E002BE3D18F
:104DA0007B68202283F842207B6800221A637B689C
:104DB0001B680C33FB64FB6C53E8003FBB64BB6CAB
:104DC00023F01003C7F8AC307B681B680C33D7F8AE
:104DD000AC20BA657B65796DBA6D41E800233B650F
:104DE0003B6D002BE3D17B68DB6B1846FDF77BFD49
:104DF0007B6802225A637B689A8D7B68DB8D9BB24D
:104E0000D31A9BB21946786800F0B6F89CE000BF50
:104E1000775100087B689A8D7B68DB8D9BB2D31A33
:104E2000A7F8CE307B68DB8D9BB2002B00F08E8024
:104E3000B7F8CE30002B00F089807B681B680C33FC
:104E4000BB63BB6B53E8003F7B637B6B23F49073C6
:104E5000C7F8C8307B681B680C33D7F8C8207A6461
:104E60003B64396C7A6C41E80023FB63FB6B002BDD
:104E7000E3D17B681B6814337B627B6A53E8003F95
:104E80003B623B6A23F00103C7F8C4307B681B68B0
:104E90001433D7F8C4203A63FB62F96A3A6B41E8ED
:104EA0000023BB62BB6A002BE3D17B68202283F81E
:104EB00042207B6800221A637B681B680C333B61CD
:104EC0003B6953E8003FFB60FB6823F01003C7F821
:104ED000C0307B681B680C33D7F8C020FA61BB6117
:104EE000B969FA6941E800237B617B69002BE3D152
:104EF0007B6802225A63B7F8CE301946786800F012
:104F00003BF823E0D7F8E43003F08003002B09D00E
:104F1000D7F8E03003F08003002B03D0786800F06E
:104F20003EF914E0D7F8E43003F04003002B0ED034
:104F3000D7F8E03003F04003002B08D0786800F089
:104F40007DF904E000BF02E000BF00E000BFE837E9
:104F5000BD4680BD80B483B000AF786000BF0C3721
:104F6000BD4680BC704780B483B000AF786000BF9E
:104F70000C37BD4680BC704780B483B000AF78600A
:104F80000B467B8000BF0C37BD4680BC704780B5A8
:104F900086B000AFF860B9603B601346FB713BE040
:104FA0003B6AB3F1FF3F37D0FDF762FB02463B6837
:104FB000D31A3A6A9A4202D33B6A002B01D10323E7
:104FC0003AE0FB681B68DB6803F00403002B23D086
:104FD000BB68802B20D0BB68402B1DD0FB681B68B2
:104FE0001B6803F00803082B16D100237B61FB68C4
:104FF0001B681B687B61FB681B685B687B617B6966
:10500000F86800F056F8FB6808225A64FB68002232
:1050100083F8402001230FE0FB681B681A68BB6817
:105020001340BA689A420CBF01230023DBB21A4630
:10503000FB799A42B4D0002318461837BD4680BD8C
:1050400080B485B000AFF860B9601346FB80FB68A0
:10505000BA689A62FB68FA889A85FB68FA88DA85EA
:10506000FB6800225A64FB68222283F84220FB6816
:105070001B69002B07D0FB681B68DA68FB681B689C
:1050800042F48072DA60FB681B685A69FB681B682F
:1050900042F001025A61FB681B68DA68FB681B6812
:1050A00042F02002DA60002318461437BD4680BC67
:1050B000704780B495B000AF78607B681B680C3394
:1050C0007B637B6B53E8003F3B633B6B23F4907344
:1050D000FB647B681B680C33FA6C3A64FB63F96B06
:1050E0003A6C41E80023BB63BB6B002BE5D17B68C6
:1050F0001B6814333B623B6A53E8003FFB61FB696A
:1051000023F00103BB647B681B681433BA6CFA623A
:10511000BB62B96AFA6A41E800237B627B6A002BB2
:10512000E5D17B681B6B012B19D17B681B680C33A5
:10513000FB60FB6853E8003FBB60BB6823F01003D3
:105140007B647B681B680C337A6CBA617B6179691C
:10515000BA6941E800233B613B69002BE5D17B68DC
:10516000202283F842207B6800221A6300BF543754
:10517000BD4680BC704780B584B000AF78607B6866
:105180005B6AFB60FB680022DA85FB680022DA8438
:10519000F868FFF7E8FE00BF1037BD4680BD80B459
:1051A00085B000AF78607B6893F84130DBB2212B8B
:1051B0003ED17B689B68B3F5805F14D17B681B6927
:1051C000002B10D17B681B6AFB60FB681B881A46AA
:1051D0007B681B68C2F308025A607B681B6A9A1CD2
:1051E0007B681A6208E07B681B6A591C7A68116246
:1051F0001A787B681B685A607B68DB8C9BB2013B2A
:105200009BB27A681946D184002B0FD17B681B684A
:10521000DA687B681B6822F08002DA607B681B68B2
:10522000DA687B681B6842F04002DA60002300E025
:10523000022318461437BD4680BC704780B582B043
:1052400000AF78607B681B68DA687B681B6822F0B7
:105250004002DA607B68202283F841207868FFF7FB
:1052600079FE002318460837BD4680BD80B58CB056
:1052700000AF78607B6893F84230DBB2222B40F0BD
:10528000AE807B689B68B3F5805F17D17B681B6934
:10529000002B13D10023FB627B689B6ABB627B6897
:1052A0001B685B689BB2C3F308039AB2BB6A1A809F
:1052B0007B689B6A9A1C7B689A6226E07B689B6A83
:1052C000FB620023BB627B689B68B3F5805F07D0FD
:1052D0007B689B68002B0AD17B681B69002B06D179
:1052E0007B681B685B68DAB2FB6A1A7008E07B684F
:1052F0001B685B68DBB203F07F03DAB2FB6A1A70EB
:105300007B689B6A5A1C7B689A627B68DB8D9BB2C8
:10531000013B9BB27A681946D185002B5DD17B6831
:105320001B68DA687B681B6822F02002DA607B6801
:105330001B68DA687B681B6822F48072DA607B681D
:105340001B685A697B681B6822F001025A617B68FE
:10535000202283F842207B6800225A637B681B6B03
:10536000012B35D17B6800221A637B681B680C33E4
:105370007B617B6953E8003F3B613B6923F010038D
:105380007B627B681B680C337A6A3A62FB61F9695D
:105390003A6A41E80023BB61BB69002BE5D17B6819
:1053A0001B681B6803F01003102B0AD10023FB605D
:1053B0007B681B681B68FB607B681B685B68FB6025
:1053C000FB687B689B8D19467868FFF7D5FD02E086
:1053D0007868FBF723FA002302E0002300E00223B1
:1053E00018463037BD4680BD80B584B000AF7860C8
:1053F0007B681B681B6923F440517B68DA687B6813
:105400001B680A431A617B689A687B681B691A43A8
:105410007B685B691343BB607B681B68DB6823F4B4
:10542000B05323F00C037A681268B9680B43D36059
:105430007B681B685B6923F440717B689A697B68B1
:105440001B680A435A617B681B682C4A934203D14C
:10545000FEF7A6FAF86002E0FEF78EFAF860FA6846
:1054600013469B0013449A001A447B685B689B00B8
:10547000B2FBF3F3224AA2FB03235B091901FA688A
:1054800013469B0013449A001A447B685B689B0098
:10549000B2FBF3F21A4BA3FB02035B09642000FB8F
:1054A00003F3D31A1B013233154AA2FB03235B0912
:1054B00003F0F0031944FA6813469B0013449A0062
:1054C0001A447B685B689B00B2FBF3F20C4BA3FBB6
:1054D00002035B09642000FB03F3D31A1B01323380
:1054E000074AA2FB03235B0903F00F027B681B68DA
:1054F0000A449A6000BF1037BD4680BD00380140A5
:105500001F85EB5180B485B000AF786039607B684F
:105510005B68FB603B68FA685A60FB689A683B68A6
:105520009A60FB689B683A685A60FB683A689A60C0
:105530003B687A681A617B681B685A1C7B681A6032
:1055400000BF1437BD4680BC704780B485B000AF43
:1055500078607B681B69FB607B685B687A6892682F
:105560009A607B689B687A6852685A60FB685B68DF
:105570007A689A4203D17B689A68FB685A607B68B4
:1055800000221A61FB681B685A1EFB681A60FB68E0
:105590001B6818461437BD4680BC704780B586B07E
:1055A00000AF00237B614F4B1B68002B40F08F80C6
:1055B0004D4B1B6801333B614B4A3B6913603B69B0
:1055C000002B21D1494B1B681B68002B0BD04FF0DF
:1055D000500383F31188BFF36F8FBFF34F8F3B608E
:1055E00000BF00BFFDE7414B1B68FB60404B1B68E1
:1055F0003E4A13603E4AFB6813603E4B1B68013312
:105600003C4A136000F0E0F83B4B1B683A699A4251
:1056100048D3364B1B681B68002B04D1364B4FF028
:10562000FF321A603EE0314B1B68DB68DB68BB6011
:10563000BB685B687B603A697B689A4203D22E4AFA
:105640007B6813602EE0BB6804331846FFF77DFFCC
:10565000BB689B6A002B04D0BB6818331846FFF761
:1056600074FFBB68DB6A01229A40244B1B6813431A
:10567000224A1360BB68DA6A13469B0013449B00FE
:105680001F4A1A44BB68043319461046FFF73AFF15
:10569000BB68DA6A1B4B1B68DB6A9A42B9D30123E9
:1056A0007B61B6E7174B1B68DA6A154913469B0006
:1056B00013449B000B441B68012B01D901237B6120
:1056C000114B1B68002B07D001237B6104E00F4BBB
:1056D0001B6801330D4A13607B6918461837BD46B5
:1056E00080BD00BF8C0500207005002068050020EB
:1056F0006C0500208405002088050020740500202A
:10570000DC040020D8040020800500207C05002057
:1057100080B487B000AF274B1B68002B03D0264B0B
:1057200001221A6040E0244B00221A60234B1B68C0
:10573000FB60FB68B3FA83F3FB72FB7AC3F11F03D0
:105740007B611F497A6913469B0013449B000B44FD
:105750001B68002B0BD14FF0500383F31188BFF36C
:105760006F8FBFF34F8F7B6000BF00BFFDE77A698B
:1057700013469B0013449B00114A13443B613B6951
:105780005B685A683B695A603B695A683B690833F1
:105790009A4204D13B695B685A683B695A603B692D
:1057A0005B68DB68074A136000BF1C37BD4680BCDE
:1057B000704700BF8C050020800500207405002084
:1057C000DC040020D804002080B483B000AF0C4B70
:1057D0001B681B68002B04D10A4B4FF0FF321A6084
:1057E00008E0074B1B68DB68DB687B607B685B68F5
:1057F000044A136000BF0C37BD4680BC704700BF31
:10580000680500208805002080B483B000AF0B4BF2
:105810001B68002B02D101237B6008E0084B1B684A
:10582000002B02D102237B6001E000237B607B68B8
:1058300018460C37BD4680BC704700BF7805002075
:105840008C050020000000000000000000000000A7
:10585000074B19680868B0E8F00F80F30988BFF3B8
:105860006F8F4FF0000080F311884EF00D0E7047DF
:10587000D804002000BF00BF0000000000000000AE
:10588000EFF30980BFF36F8F0D4B1A6820E9F00F1B
:1058900010602DE908404FF0500080F31188FFF7A9
:1058A00037FF4FF0000080F31188BDE80840196809
:1058B0000868B0E8F00F80F30988BFF36F8F704776
:1058C000D804002000BF00BF80B582B000AF4FF009
:1058D000500383F31188BFF36F8FBFF34F8F7B604B
:1058E00000BFFFF75BFE0346002B03D0064B4FF0D3
:1058F00080521A6000233B603B6883F3118800BF2D
:1059000000BF0837BD4680BD04ED00E0024B0146F4
:10591000186800F025B800BF2400002070B50F4EB5
:105920000C463168054611B900F032FB3060214663
:10593000284600F02DFB431C03D14FF0FF342046D6
:1059400070BDC41C24F00304A042F8D0211A2846DC
:1059500000F01EFB0130F2D1EFE700BF9005002000
:105960002DE9F843CD1C25F0030508350C2D38BF73
:105970000C25002D064601DBA94204D90C23336017
:105980000020BDE8F883DFF8D48000F069F8D8F88B
:1059900000301C4644BB29463046FFF7BFFF431C7E
:1059A000044658D1D8F800402746002F43D1002C98
:1059B0004BD023683946304604EB030900F0E8FA7F
:1059C000814542D1216830466D1A2946FFF7A6FF6E
:1059D00001303AD023682B442360D8F800305A684D
:1059E00062BBC8F800700FE02268521B20D40B2A5B
:1059F00017D96119A342256018BF5960636808BFB1
:105A0000C8F8001062514B60304600F02FF804F1E6
:105A10000B00231D20F00700C21A1CBF1B1AA35045
:105A2000AFE76268A3420CBFC8F800205A60EBE7FA
:105A300023466468AEE73C467F68B6E71A465B6873
:105A4000A342FBD100235360DEE70C2330463360D2
:105A500000F00CF894E70560D6E700BF940500203D
:105A6000014800F0E2BA00BFD8060020014800F06B
:105A7000DDBA00BFD8060020002310B50446C0E9F7
:105A80000033C0E90433836081814366C28183614E
:105A9000194608225C3000F03FFA0D4B2462636225
:105AA0000C4BA3620C4BE3620C4B23630C4B9C42EC
:105AB00006D003F16802944202D0D0339C4205D153
:105AC00004F15800BDE8104000F0AEBA10BD00BFB0
:105AD000695D00088B5D0008C35D0008E75D000894
